:1000000012C0189518951895189518951895189563
:10001000189518951895DBC40AC518951895189564
:100020001895189518958FE58DBFC0E4E8E24E2E1F
:1000300084E08EBFD4E0F4E05F2EA89584B7082E4C
:10004000877F84BF88E1992781BD91BDEEEFF3E002
:10005000A0E6B0E088278D933197E9F78CE089B965
:1000600080E080BD88E18AB90E94DE036624B99AE7
:10007000BA9ABB9AA59A8E988F98B898B998969A7A
:10008000979AC09AC19A579A7894B99ABA9A81EA7B
:100090008FBD81E08EBDBB9A81E685BD8FEF90E07C
:1000A0009BBD8ABD88EC90E05ED480E090E09BBD73
:1000B0008ABD8FEF90E099BD88BD88EC90E053D465
:1000C00080E090E099BD88BD7FEF73BD88EC90E043
:1000D0004AD470E073BDE0E0F0E0A4EFB0E032D5C8
:1000E0000091F4000F3F09F034C174E673BD84E65B
:1000F00090E09BBD8ABD84E690E099BD88BDAD9A35
:1001000084E886B980E087B907B1007F07B952D487
:10011000A7EFB0E08D939C93A7EFB0E00D911C91F9
:10012000043150E0150708F009C007B1007F0160F5
:1001300007B940D4A7EFB0E08D939C93A7EFB0E050
:100140000D911C91003050E0150709F009C007B16E
:10015000007F026007B92ED4A7EFB0E08D939C9387
:10016000E3E0F0E0F1D382E090E0FDD385D3082F07
:10017000013009F00DC086D3A3EFB0E08C93A3EF5C
:10018000B0E08C91A7EDB0E070D38D9388278C936D
:1001900082E090E0E8D370D3082F003009F0E3CF7D
:1001A00070E073BD80E090E09BBD8ABD80E090E090
:1001B00099BD88BDAD98AEEEB0E088278C9381E004
:1001C0008093D5000091D500033010F009F01DC0D8
:1001D0008AE190E08A939A93F8D2A4EDB0E00C9370
:1001E000A4EDB0E08C918F5B8C93A4EDB0E08C918A
:1001F000AEEEB0E03AD38D9388278C93A5EDB0E0B6
:100200008C918F5F8C9308F4DDCFEEE7FBE06BD32E
:100210008EEE92E0A8D3EAE8FBE065D36AD3A7EDBF
:10022000B0E088278C9382E090E09DD325D3082FFF
:10023000013009F00DC026D3A3EFB0E08C93A3EFFB
:10024000B0E08C91A7EDB0E010D38D9388278C930C
:1002500082E090E088D310D3082F003009F0E3CF7C
:10026000A7EDB0E0ECE8FBE077D409F405C07091AD
:10027000D60070687093D60084EF91E074D3E6E9FD
:10028000FBE031D3AEEEB0E028D38EEE92E06BD33C
:10029000A7EDB0E088278C9382E090E064D3ECD2A5
:1002A000082F013009F00DC0EDD2A3EFB0E08C9320
:1002B000A3EFB0E08C91A7EDB0E0D7D28D93882763
:1002C0008C9382E090E04FD3D7D2082F003009F012
:1002D000E3CFA7EDB0E0EAEAFBE03ED409F405C0C5
:1002E0007091D60070687093D60081E08093D5003D
:1002F0000091D5000A3010F009F01CC0A6EDB0E066
:100300008C9187FB0EF408C0A8E4B0E042E04ED226
:100310008AEF90E028D307C0AAE4B0E042E046D2DA
:100320008AEF90E020D3A5EDB0E08C918F5F8C93A5
:1003300008F4DECFA6EDB0E08C9187FB0EF409C087
:1003400081E08093F400E0E0F0E0A4EFB0E07BE730
:10035000E8D3A0E3B0E00C9106FB81E00EF480E06E
:100360008F93A6E3B0E00C9101FB81E00EF480E0F6
:100370009F918923882309F4FBC074E673BD84E64A
:1003800090E09BBD8ABD84E690E099BD88BDAD9AA2
:10039000E1E0F0E0D9D28AE190E08A939A9315D215
:1003A000A4EDB0E00C93869BF6CF70E073BD80E0C7
:1003B00090E09BBD8ABD80E090E099BD88BDAD987E
:1003C000AEEEB0E088278C9381E08093D500009159
:1003D000D500033010F009F01DC08AE190E08A9347
:1003E0009A93F3D1A4EDB0E00C93A4EDB0E08C911E
:1003F0008F5B8C93A4EDB0E08C91AEEEB0E035D283
:100400008D9388278C93A5EDB0E08C918F5F8C93B2
:1004100008F4DDCFE3E0F0E097D282E090E0A3D2F1
:100420002BD2082F013009F00DC02CD2A3EFB0E081
:100430008C93A3EFB0E08C91A7EDB0E016D28D9332
:1004400088278C9382E090E08ED216D2082F00305D
:1004500009F0E3CFEEE7FBE046D28EEE92E083D2E6
:10046000A7EDB0E088278C9382E090E07CD204D2A4
:10047000082F013009F00DC005D2A3EFB0E08C9336
:10048000A3EFB0E08C91A7EDB0E0EFD18D9388277A
:100490008C9382E090E067D2EFD1082F003009F012
:1004A000E3CFA7EDB0E0ECE8FBE056D309F405C0DC
:1004B0007091D60070687093D600E6E9FBE013D225
:1004C000AEEEB0E00AD28EEE92E04DD2A7EDB0E0F3
:1004D00088278C9381E090E046D2CED1082F01305E
:1004E00009F00DC0CFD1A3EFB0E08C93A3EFB0E043
:1004F0008C91A7EDB0E0B9D18D9388278C9381E0E2
:1005000090E031D2B9D1082F003009F0E3CFA7ED48
:10051000B0E0EAEAFBE020D309F405C07091D60010
:1005200070687093D60081E08093D5000091D5006B
:100530000A3010F009F01CC0A6EDB0E08C9187FBEA
:100540000EF408C0A8E4B0E042E030D18AEF90E0B9
:100550000AD207C0AAE4B0E042E028D18AEF90E0D6
:1005600002D2A5EDB0E08C918F5F8C9308F4DECFC2
:1005700080E08093F900869915C0AAE4B0E00D915F
:100580001C910C3750E0150708F005C08FEF90E084
:100590009BBD8ABD04C080E090E09BBD8ABD88EC15
:1005A00090E0E1D1879915C0A8E4B0E00D911C91CD
:1005B0000C3750E0150708F005C08FEF90E099BDAB
:1005C00088BD04C080E090E099BD88BD88EC90E0D3
:1005D000CAD1B0990CC003B50C3708F003C07FEF47
:1005E00073BD02C070E073BD88EC90E0BCD1B199DE
:1005F0000FC00091F9000C3708F004C080E8809328
:10060000F90003C080E08093F90088EC90E0ABD162
:100610000091D4000F3F08F006C0A4EDB0E08C912B
:100620008F5F8C9303C080E08093D4004091F900E9
:100630000091D400041708F002C0AD9A01C0AD9833
:100640009ACFA7EDB0E088278C9316D1082F013000
:1006500009F015C017D1A3EFB0E08C9383E2482FC7
:100660000091F300041709F409C0A3EFB0E08C91E6
:10067000A7EDB0E0FAD08D9388278C93E6CF88E180
:1006800081D1E7EDF0E001E0A881B9813CD2A881F9
:10069000B981E4EBFBE060D20FB688E1481A80E054
:1006A000580A22960FBE09F011C082E5A7EDB0E00E
:1006B0006FD183E2A7EDB0E06BD1A7EDB0E0F1D14F
:1006C000802F912F90934B0080934A0088E15AD15C
:1006D000E7EDF0E001E0A881B98115D2A881B981E8
:1006E000E6EBFBE039D20FB688E1481A80E0580A01
:1006F00022960FBE09F011C087E4A7EDB0E048D103
:1007000083E2A7EDB0E044D1A7EDB0E0CAD1802FDD
:10071000912F909349008093480088E133D1E7ED11
:10072000F0E001E0A881B981EED1A881B981E8EBC0
:10073000FBE012D20FB688E1481A80E0580A2296F0
:100740000FBE09F00CC082E4A7EDB0E021D183E236
:10075000A7EDB0E01DD1A7EDB0E0A3D103BD88E1C6
:1007600011D1E7EDF0E001E0A881B981CCD1A881F9
:10077000B981EAEBFBE0F0D10FB688E1481A80E0DE
:10078000580A22960FBE09F00EC08DE4A7EDB0E026
:10079000FFD083E2A7EDB0E0FBD0A7EDB0E081D1C0
:1007A000A9EFB0E00C930895F894FFCFEA2FFB2F48
:1007B0008D91809581934A95D9F7089515E000E0D1
:1007C0000093F7001093F80008954091F7005091BE
:1007D000F8000DEF13E4E4D00D5311460093F70039
:1007E0001093F8005991499126D0089508D0D8D097
:1007F00000FC10D0089503D01ED001F8F9CF0024DA
:10080000E89457FF02C009D0689400F80BD010F8A4
:100810000124089502D009D00895509540954F5F66
:100820005F4F0895E89417FF0895009510950F5FA6
:100830001F4F68940895352F242FE894452B11F409
:1008400068940895512F402F0027112780E1440F0D
:10085000551F001F111F021B130B416018F4020FDC
:10086000131F4E7F8A9599F708958F938D91882352
:10087000E9F711978F91089580916C00882309F012
:1008800081E0089580916C00882309F408950F9207
:100890009F93AF93BF937F9380916C008823E1F384
:1008A000F89480916C008A9580936C0090916A0016
:1008B000A0E6B0E0A90F0024B01D8C9193959A306A
:1008C00009F4992790936A0078947F91BF91AF9132
:1008D0009F910F900895A0E1B4E08D91882311F0CD
:1008E0000BD0FBCF08956FD0802D11F005D0FBCF3A
:1008F00008958DE001D08AE09F939FB79F93AF93B7
:10090000BF930F937F939091D3009436E1F3F894C3
:100910009091D30093959093D30099270091D200A2
:10092000ADE6B0E0A00FB91F8C930395043609F42F
:1009300000270093D200559A7F910F91BF91AF91FC
:100940009F919FBF9F91089588EE93E00CD03197BF
:10095000D9F708953197F1F70895689462F80895EA
:10096000E89462F80895EF93FF93EE27E82BE92BC4
:1009700031F0E4EFF1E03197F1F70197D1F7FF9112
:10098000EF91089599275A924A92480E591E089558
:10099000FD019D91981709F091939923D1F708953E
:1009A0000F92B801469F8001479F100D569F100D72
:1009B0000F900895369A3699FECF369A3699FECF23
:1009C00084B195B10895C8953196002008957F931C
:1009D0000F93AF93BF938F939F938FB78F93E894A9
:1009E00080916C000AE0081B19F49CB1B6DF13C0BB
:1009F00000916B00A0E6B0E077279CB1A00FB71F75
:100A00009C936894839580936C0003950A3009F455
:100A1000002700936B00933209F413DE8F918FBF90
:100A20009F918F91BF91AF910F917F9118957F9377
:100A3000AF93BF938F939F938FB78F939091D30072
:100A4000992399F09A959093D3009927ADE6B0E059
:100A50008091D100A80FB91F9C918395843609F429
:100A600088278093D1009CB901C055988F918FBF82
:100A70009F918F91BF91AF917F911895040F151F92
:100A8000261F371F0895000F111F221F331F0895BF
:100A900000951095209530950F5F1F4F2F4F3F4FBA
:100AA000089500271127222733271DD08A3328F4E1
:100AB000803318F005D015D0F9CF0EF4E9CF0895A2
:100AC00080538F93402F512F622F732FDCDFDBDF9A
:100AD000D5DFD9DF8F919927080F191F291F391FDB
:100AE00008958D910895E894FCDF8032E9F38B320C
:100AF000D9F38930C9F38D3211F46894F2CF089597
:100B000088278D930895002329F081918D930A956C
:100B10008823C9F7F5CFE199FECFEEBBFFBB319635
:100B2000089591E001C092E07B3751F47FB7F894CB
:100B3000F2DF8D918DBBE29AE19A9A95C9F77FBF5A
:100B40007727089591E001C092E0E5DFE09A8DB348
:100B50008D939A95D1F70895689401C0E894AF9366
:100B6000BF938D9116F0919102C02DDF902D8917C2
:100B700018F011F48823A9F7BF91AF91089541545B
:100B80002B50494E31323334000000004F4B736517
:100B90007450494E000041542B4E414D45426C75F6
:100BA00065436F4C696768742D004F4B7365746EB5
:0C0BB000616D65005200470042004D00DE
:00000001FF
