:1000000012C0189518951895189518951895189563
:100010001895E1C01895F7C326C41895189518953A
:100020001895189518958FE58DBFC0E4E8E24E2E1F
:1000300084E08EBFD4E0F4E05F2EA89584B7082E4C
:10004000877F84BF88E1992781BD91BDEEEFF3E002
:10005000A0E6B0E088278D933197E9F784E389B96A
:1000600080E080BD88E18AB90E94FD026624BF9AC3
:100070008C9A8B9AA59A8E988F98B898B998969AD8
:10008000979AC09AC19A579A78947091D6007F77C0
:100090007093D600E6EBF9E045D3C79A88EC90E080
:1000A0007ED3C798949A88EC90E079D39498939AE9
:1000B00088EC90E074D3939888EC90E070D3FBD2F6
:1000C000082F003009F0FBCFE0E0F0E0A4EFB0E053
:1000D00055D4A0E3B0E00C9106FB81E00EF480E083
:1000E0008F93A6E3B0E00C9101FB81E00EF480E079
:1000F0009F918923882309F401C08FD10091F400D6
:100100000F3F09F010C089D1A6EDB0E08C9187FBBC
:100110000EF409C081E08093F400E0E0F0E0A4EF89
:10012000B0E07BE71AD481E083BF79B7716079BF13
:1001300074E672BF80E08093F90080E08093FA005B
:1001400080E08093FB0080E08093FC0086990FC0E4
:100150000091F900043608F004C08FEF8093F90095
:1001600003C080E08093F90088EC90E018D3879971
:100170000FC00091FA00043608F004C08FEF80939E
:10018000FA0003C080E08093FA0088EC90E007D387
:10019000B0990FC00091FB00043608F004C08FEF47
:1001A0008093FB0003C080E08093FB0088EC90E02C
:1001B000F6D2B1990FC00091FC00043608F004C0DB
:1001C0008FEF8093FC0003C080E08093FC0088ECFC
:1001D00090E0E5D2BBCF0F921F922F923F924F92A9
:1001E0005F927F92AF92BF920F931F932F933F9393
:1001F0004F935F936F937F938F939F93AF93BF932F
:10020000CF93DF93EF93FF938FB78F930091D40039
:100210000F3F08F006C0A4EDB0E08C918F5F8C9387
:1002200003C080E08093D4004091F9000091D40095
:10023000041708F002C0C79A01C0C7984091FA009D
:100240000091D400041708F002C0949A01C0949859
:100250004091FB000091D400041708F002C0939A6B
:1002600001C093984091FC000091D400041708F05D
:1002700002C0AD9A01C0AD9874E672BF8F918FBF76
:10028000FF91EF91DF91CF91BF91AF919F918F91AE
:100290007F916F915F914F913F912F911F910F919E
:1002A000BF90AF907F905F904F903F902F901F90A6
:1002B0000F901895882783BFA7EDB0E088278C930F
:1002C000FAD1082F013009F015C0FBD1A3EFB0E03F
:1002D0008C9383E2482F0091F300041709F409C0BE
:1002E000A3EFB0E08C91A7EDB0E0DED18D9388272D
:1002F0008C93E6CF88E162D2E7EDF0E001E0A881DF
:10030000B9811DD3A881B981ECECF9E041D30FB6D6
:1003100088E1481A80E0580A22960FBE09F00EC004
:1003200082E5A7EDB0E050D283E2A7EDB0E04CD279
:10033000A7EDB0E0D2D2A9EFB0E00C9388E13ED2B5
:10034000E7EDF0E001E0A881B981F9D2A881B98197
:10035000EEECF9E01DD30FB688E1481A80E0580AA8
:1003600022960FBE09F00EC087E4A7EDB0E02CD2B4
:1003700083E2A7EDB0E028D2A7EDB0E0AED2AAEFBD
:10038000B0E00C9388E11AD2E7EDF0E001E0A8813B
:10039000B981D5D2A881B981E0EDF9E0F9D20FB6E3
:1003A00088E1481A80E0580A22960FBE09F00EC074
:1003B00082E4A7EDB0E008D283E2A7EDB0E004D27A
:1003C000A7EDB0E08AD2ABEFB0E00C9388E1F6D1B4
:1003D000E7EDF0E001E0A881B981B1D2A881B9814F
:1003E000E2EDF9E0D5D20FB688E1481A80E0580A6C
:1003F00022960FBE09F00EC08DE4A7EDB0E0E4D167
:1004000083E2A7EDB0E0E0D1A7EDB0E066D2ACEFBB
:10041000B0E00C9381E083BF0895939AC79A949AB1
:10042000AD9A86E886B980E087B9E1E0F0E0A8D12E
:1004300007B1007F07B9DAD1A7EFB0E08D939C93A5
:10044000A7EFB0E00D911C91043150E0150708F0C2
:1004500009C007B1007F016007B9C8D1A7EFB0E0BC
:100460008D939C93A7EFB0E00D911C91003050E06C
:10047000150709F009C007B1007F026007B9B6D1BE
:10048000A7EFB0E08D939C939398C7989498AD98FC
:10049000AEEEB0E088278C9381E08093D500009188
:1004A000D500033010F009F01DC08AE190E08A9376
:1004B0009A93AAD0A4EDB0E00C93A4EDB0E08C9197
:1004C0008F5B8C93A4EDB0E08C91AEEEB0E0ECD0FD
:1004D0008D9388278C93A5EDB0E08C918F5F8C93E2
:1004E00008F4DDCFE4EDF9E01DD18AEF90E057D1BB
:1004F000A7EDB0E088278C93DED0082F013009F0FB
:10050000FBCFDFD0A3EFB0E08C93A3EFB0E08C91F2
:10051000A7EDB0E0C9D08D9388278C938AE090E056
:100520003ED1C9D0082F003009F0EBCFA7EDB0E0E5
:10053000E0EEF9E02DD209F405C07091D6007068A4
:100540007093D600EAEEF9E0EDD0AEEEB0E0E4D084
:100550008AEF90E024D1AFD0082F013009F0FBCF13
:10056000A7EDB0E088278C93ACD0A3EFB0E08C93DC
:10057000A3EFB0E08C91A7EDB0E096D08D938827E3
:100580008C938AE090E00BD196D0082F003009F0D0
:10059000EBCFA7EDB0E0EEEFF9E0FAD109F405C03A
:1005A0007091D60070687093D60081E08093D5007A
:1005B0000091D500053010F009F01CC0A6EDB0E0A8
:1005C0008C9187FB0EF408C082B390E1892782BB2F
:1005D0008AEF90E0E4D007C088B390E8892788BB11
:1005E0008AEF90E0DCD0A5EDB0E08C918F5F8C932A
:1005F00008F4DECF0895F894FFCF15E000E00093F3
:10060000F7001093F80008954091F7005091F8001A
:100610000DEF13E4E1D00D5311460093F700109352
:10062000F8005991499126D0089508D0D5D000FC02
:1006300010D0089503D01ED001F8F9CF0024E8941B
:1006400057FF02C009D0689400F80BD010F80124BD
:10065000089502D009D00895509540954F5F5F4F9F
:100660000895E89417FF0895009510950F5F1F4FA8
:1006700068940895352F242FE894452B11F468943D
:100680000895512F402F0027112780E1440F551F57
:10069000001F111F021B130B416018F4020F131FE0
:1006A0004E7F8A9599F708958F938D918823E9F766
:1006B00011978F91089580916C00882309F081E053
:1006C000089580916C00882309F408950F929F93F8
:1006D000AF93BF937F9380916C008823E1F3F894EC
:1006E00080916C008A9580936C0090916A00A0E6DE
:1006F000B0E0A90F0024B01D8C9193959A3009F4B5
:10070000992790936A0078947F91BF91AF919F91C0
:100710000F900895A0E1B4E08D91882311F008D0E6
:10072000FBCF08956CD0802D11F002D0FBCF08953F
:100730009F939FB79F93AF93BF930F937F93909196
:10074000D3009436E1F3F8949091D300939590936D
:10075000D30099270091D200ADE6B0E0A00FB91FF9
:100760008C930395043609F400270093D200559A20
:100770007F910F91BF91AF919F919FBF9F910895DE
:1007800088EE93E00CD03197D9F708953197F1F7BF
:100790000895689462F80895E89462F80895EF93D4
:1007A000FF93EE27E82BE92B31F0E0EDF7E03197EE
:1007B000F1F70197D1F7FF91EF91089599275A9298
:1007C0004A92480E591E0895FD019D91981709F00F
:1007D00091939923D1F708950F92B801469F800114
:1007E000479F100D569F100D0F900895369A369919
:1007F000FECF369A3699FECF84B195B10895C8954B
:100800003196002008957F930F93AF93BF938F93FA
:100810009F938FB78F93E89480916C000AE0081B38
:1008200019F49CB1B6DF13C000916B00A0E6B0E0F4
:1008300077279CB1A00FB71F9C93689483958093F2
:100840006C0003950A3009F4002700936B00933283
:1008500009F430DD8F918FBF9F918F91BF91AF9140
:100860000F917F9118957F93AF93BF938F939F9331
:100870008FB78F939091D300992399F09A95909385
:10088000D3009927ADE6B0E08091D100A80FB91F41
:100890009C918395843609F488278093D1009CB974
:1008A00001C055988F918FBF9F918F91BF91AF914C
:1008B0007F911895040F151F261F371F0895000FED
:1008C000111F221F331F0895009510952095309514
:1008D0000F5F1F4F2F4F3F4F0895002711272227EB
:1008E00033271DD08A3328F4803318F005D015D073
:1008F000F9CF0EF4E9CF089580538F93402F512FF5
:10090000622F732FDCDFDBDFD5DFD9DF8F919927F3
:10091000080F191F291F391F08958D910895E89414
:10092000FCDF8032E9F38B32D9F38930C9F38D32A1
:1009300011F46894F2CF089588278D9308950023C9
:1009400029F081918D930A958823C9F7F5CFE19914
:10095000FECFEEBBFFBB3196089591E001C092E05F
:100960007B3751F47FB7F894F2DF8D918DBBE29A1B
:10097000E19A9A95C9F77FBF7727089591E001C062
:1009800092E0E5DFE09A8DB38D939A95D1F70895C3
:10099000689401C0E894AF93BF938D9116F0919144
:1009A00002C02DDF902D891718F011F48823A9F7C4
:1009B000BF91AF9108954E656C6C69206973742086
:1009C0006D65696E204669736368000052004700D8
:1009D00042004D0041542B50494E31323334000017
:1009E0004F4B73657450494E000041542B4E414D9E
:1009F00045426C7565436F4C696768742D004F4BB9
:080A00007365746E616D650001
:00000001FF
